{
  "_format": "hh-sol-artifact-1",
  "contractName": "SimpleStorage",
  "sourceName": "src/backend/contracts/SimpleStorage.sol",
  "abi": [
    {
      "anonymous": false,
      "inputs": [
        {
          "indexed": false,
          "internalType": "uint256",
          "name": "data",
          "type": "uint256"
        },
        {
          "indexed": true,
          "internalType": "address",
          "name": "from",
          "type": "address"
        }
      ],
      "name": "SimpleStorageUpdated",
      "type": "event"
    },
    {
      "inputs": [],
      "name": "data",
      "outputs": [
        {
          "internalType": "uint256",
          "name": "",
          "type": "uint256"
        }
      ],
      "stateMutability": "view",
      "type": "function"
    },
    {
      "inputs": [],
      "name": "readData",
      "outputs": [
        {
          "internalType": "uint256",
          "name": "",
          "type": "uint256"
        }
      ],
      "stateMutability": "view",
      "type": "function"
    },
    {
      "inputs": [
        {
          "internalType": "uint256",
          "name": "_data",
          "type": "uint256"
        }
      ],
      "name": "updateData",
      "outputs": [],
      "stateMutability": "nonpayable",
      "type": "function"
    }
  ],
  "bytecode": "0x608060405234801561001057600080fd5b506101c4806100206000396000f3fe608060405234801561001057600080fd5b50600436106100415760003560e01c806309e960081461004657806373d4a13a14610062578063bef55ef314610080575b600080fd5b610060600480360381019061005b919061011a565b61009e565b005b61006a6100f6565b6040516100779190610152565b60405180910390f35b6100886100fc565b6040516100959190610152565b60405180910390f35b806000819055503373ffffffffffffffffffffffffffffffffffffffff167f0a3457d19a15fe3d8307712f30caaf302aa09479e7f31cd188aaa2d22a38376d826040516100eb9190610152565b60405180910390a250565b60005481565b60008054905090565b60008135905061011481610177565b92915050565b60006020828403121561012c57600080fd5b600061013a84828501610105565b91505092915050565b61014c8161016d565b82525050565b60006020820190506101676000830184610143565b92915050565b6000819050919050565b6101808161016d565b811461018b57600080fd5b5056fea264697066735822122030808a3ab919b1dffceff5e4dea8165319b4564476c50f2a61987cc6af4394d164736f6c63430008040033",
  "linkReferences": {},
  "deployedLinkReferences": {}
}